:020000040000FA
:060000000A128A11FA2F1A
:100D2000831203138C1D952E962E902E8C11080085
:100D30008316031391121116111A9F2EA02E9C2EAA
:100D400008008316031391161116111AA82EA92E46
:100D5000A52E08008316031311151119B02EB12EFC
:100D6000AD2E831203138C1183160313140808008D
:100D7000F00070088312031393000A128A11902660
:100D80000A128A1183160313111FC72EC82ECA2EEA
:100D90000030CB2E01300800F1000314F10D831652
:100DA000031391149118D52ED62ED22E831203132D
:100DB0008C11831603139419DE2EDF2EE12E0130E1
:100DC000E72E71080A128A11B8260A128A11080041
:100DD000F60069300A128A1124270A128A11F500D6
:100DE0007508FB0076080A128A11B8260A128A11C1
:100DF00074080A128A11B8260A128A110A128A1174
:100E0000AA260A128A110800F1008316031391150D
:100E1000141C0B2F0C2F082F831203131308F00040
:100E20007008F2007108031D162F172F1D2F0A12CC
:100E30008A1198260A128A11222F0A128A11A126D3
:100E40000A128A1172080800F3007308F100710792
:100E5000F2007208F3008316031311141118312FD6
:100E6000322F2E2F831203138C1183160313941920
:100E70003A2F3B2F3D2F0130432F73080A128A115E
:100E8000B8260A128A110800F0008316031387158A
:100E900007168312031394168316031394019417F1
:100EA0007008031D542F552F5C2F83120313140851
:100EB000F03908389400622F831203131408F039B4
:100EC00004389400831603139101093093008312B0
:100ED00003138C11831603138C1508000730F700D9
:100EE0007708F40019300A128A11E8260A128A11CA
:100EF000F401F40A6B300A128A11E8260A128A11E8
:100F0000F4011A300A128A11E8260A128A11F40131
:100F10001C300A128A11E8260A128A111830F700CA
:100F20007708F4001B300A128A11E8260A128A1187
:100F3000F401F40A38300A128A11E8260A128A11DA
:100F400008000630FA001330F900AD30F800F80B55
:100F5000A72FF90BA72FFA0BA72FAE2F00300A12DD
:100F60008A1144270A128A110A128A116E270A125C
:100F70008A1169300A128A1124270A128A11F8008C
:100F80007808FB007B08031DC62FC72FE92F75309B
:100F90000A128A11B8260A128A1169300A128A11B5
:100FA000CC260A128A11F8007808FB007B08031D82
:100FB000DA2FDB2FE92F01300A128A1104270A12D7
:100FC0008A11F8007808FC000A128A11AA260A126F
:100FD0008A110330FA008A30F9005530F800F80B16
:100FE000EF2FF90BEF2FFA0BEF2FF62FB92F0A1275
:100FF0008A110028FB01FC0183010A128A11A12F2A
:04400E00D93FFF3F58
:00000001FF
