:020000040000FA
:060000000A128A11FC2F18
:100E9400831203138C1D4F2F502F4A2F8C110800DF
:100EA4008316031391121116111A592F5A2F562F04
:100EB40008008316031391161116111A622F632F5B
:100EC4005F2F0800F00070088312031393000A12C6
:100ED4008A114A270A128A1108008316031311156E
:100EE4001119752F762F722F831203138C11831609
:100EF400031314080800F1008316031311141118C6
:100F0400842F852F812F831203138C1183160313CF
:100F140094198D2F8E2F8F2F9A2F71080A128A11F0
:100F240064270A128A110A128A114A270A128A119C
:100F34000800F000831603138715071683120313A2
:100F440094167008031DA72FA82FAD2F1408F0398D
:100F540008389400B12F1408F0390438940083162B
:100F640003139101093093008C15831203138C1120
:100F74000800F100831603139115141CC22FC32F0C
:100F8400BF2F831203131308F0007008F2007108D6
:100F9400031DCD2FCE2FD42F0A128A1152270A12E5
:100FA4008A11D92F0A128A115B270A128A11720830
:100FB400080000300A128A119B270A128A1168302D
:100FC4000A128A117D270A128A1175300A128A11AF
:100FD40064270A128A1100300A128A11BB270A12E6
:100FE4008A110A128A116F270A128A11E12F0A1232
:0C0FF4008A11002883010A128A11DB2FE9
:04400E00D93FFF3F58
:00000001FF
