:020000040000FA
:060000000A128A11F82F1C
:10000E003B300A128A15C4270A128A11831203136F
:10001E002608C8002508C7002408C6002308C50006
:10002E004230B0001230AF001E30AE00B830AD001E
:10003E004330F300AA30F2000030F1000030F0003F
:10004E004808F7004708F6004608F5004508F40092
:10005E000A128A118D230A128A117308831203134E
:10006E00B4007208B3007108B2007008B1000A1231
:10007E008A1170250A128A11831203133008C400E4
:10008E002F08C3002E08C2002D08C1000800023040
:10009E00F7000030F800643083120313B10031080A
:1000AE00F9000230B2003208FA003B300A128A110F
:1000BE0028220A128A11831203136508B100B201B5
:1000CE006408B300B4013308B400B301310833043B
:1000DE00F00032083404F100F201F11BF203720851
:1000EE00F30001300A128A11D3220A128A11730800
:1000FE0083120313B8007208B7007108B6007008B7
:10010E00B5004630F3008030F2000030F1000030D0
:10011E00F0003808F7003708F6003608F500350805
:10012E00F4000A128A118D230A128A11730883129F
:10013E000313B0007208AF007108AE007008AD0076
:10014E0008000230F7000030F80064308312031309
:10015E00B1003108F9000230B2003208FA003D3029
:10016E000A128A1128220A128A11831203136508B1
:10017E00B100B2016408B300B4013308B400B30196
:10018E0031083304F00032083404F100F201F11B9F
:10019E00F2037208F30001300A128A11D3220A12F6
:1001AE008A11730883120313B8007208B70071081E
:1001BE00B6007008B5004630F3008030F200003013
:1001CE00F1000030F0003808F7003708F600360866
:1001DE00F5003508F4000A128A118D230A128A11CD
:1001EE00730883120313B0007208AF007108AE00DB
:1001FE007008AD0008000230F7000030F8006430DF
:10020E0083120313B1003108F9000230B200320834
:10021E00FA003F300A128A1128220A128A1183121A
:10022E0003136508B100B2016408B300B4013308CA
:10023E00B400B30131083304F00032083404F10085
:10024E00F201F11BF2037208F30001300A128A1157
:10025E00D3220A128A11730883120313B80072088C
:10026E00B7007108B6007008B5004630F300803054
:10027E00F2000030F1000030F0003808F7003708C7
:10028E00F6003608F5003508F4000A128A118D239F
:10029E000A128A11730883120313B0007208AF009A
:1002AE007108AE007008AD0008000230F700003093
:1002BE00F800643083120313B1003108F9000230E4
:1002CE00B2003208FA0043300A128A1128220A12AA
:1002DE008A11831203136508B100B2016408B300DA
:1002EE00B4013308B400B30131083304F00032080E
:1002FE003404F100F201F11BF2037208F300013035
:10030E000A128A11D3220A128A1173088312031356
:10031E00B8007208B7007108B6007008B500433017
:10032E00F3000330F2000030F1000030F000380826
:10033E00F7003708F6003608F5003508F4000A1203
:10034E008A118D230A128A11730883120313B000C7
:10035E007208AF007108AE007008AD0008000030E2
:10036E0083120313CF000030CE000030CD000030DA
:10037E00CC000030D3000030D2000030D10000306D
:10038E00D0000030D7000030D6000030D50000304D
:10039E00D4000030DB000030DA000030D90000302D
:1003AE00D8000030DF000030DE000030DD0000300D
:1003BE00DC000030E3000030E2000030E1000030ED
:1003CE00E00000300A128A1507270A128A110A1253
:1003DE008A1591270A128A110A128A1107200A1207
:1003EE008A110A128A1561270A128A110A128A15AF
:1003FE0031270A128A110A128A115C210A128A11F5
:10040E000A128A1102210A128A110A128A11A820CE
:10041E000A128A110A128A114E200A128A11033008
:10042E0083120313CB008A30CA005530C900C90BA2
:10043E001E2ACA0B1E2ACB0B1E2AF3290A128A1158
:10044E00002883120313A0000030F000F1007A0898
:10045E00FB00FC017B08F2007C08F30079080A120D
:10046E008A15BE260A128A11D2300A128A158426DD
:10047E000A128A11FB007B0883120313A2002208C2
:10048E00031D4A2A4B2ACD2A20080A128A155626FF
:10049E000A128A11FB007B0883120313A2002208A2
:1004AE00031D5A2A5B2ACD2AD3300A128A156A26D0
:1004BE000A128A11FB007B0883120313A200220882
:1004CE00031D6A2A6B2A7E2A77037804031D702A7D
:1004DE00712A7E2A01300A128A159E260A128A1164
:1004EE00FB00790884007B0883138000CD2A220844
:1004FE00031D822A832ACD2A7808803AFF00803095
:10050E007F02031D8C2A02307702031C8F2A902A49
:10051E00CD2A83120313A10100300A128A159E26DA
:10052E000A128A11FB008312031321087907FC00BB
:10053E007C0884007B08831380000130FB007B085D
:10054E00A1077708FF3EFB0078080318013EFF3E27
:10055E00FC007C08803A803C031DB72A7B082102F0
:10056E00031CBA2ABB2A932A01300A128A159E2628
:10057E000A128A11FB008312031321087907FC006B
:10058E007C0884007B0883138000CD2A0A128A150A
:10059E0048260A128A110800F80078080319D82A8A
:1005AE00D92AED2AF31FDC2ADD2AED2A7009FA007A
:1005BE007109FB007209FC007309FD00FA0A0319A8
:1005CE00FB0A0319FC0A0319FD0AF52A7308FD003C
:1005DE007208FC007108FB007008FA0073087204C0
:1005EE0071047004031DFC2AFD2A062B0030F30053
:1005FE000030F2000030F1000030F0008C2B96300D
:10060E00F4007408F900182B0130F4007408F9078F
:10061E0001300310FD0CFC0CFB0CFA0CFF3E031D0D
:10062E00102BFE307D05031D1D2B1E2B0B2B3A2B85
:10063E000130F4007408F9070130FA07003003188E
:10064E000130FB07003003180130FC07003003189F
:10065E000130FD0701300310FD0CFC0CFB0CFA0CF5
:10066E00FF3E031D322BFF307D05031D3F2B402B1C
:10067E001F2B4C2B0130F9020130F4000310FA0D40
:10068E00FB0DFC0DFD0DF40B452BFC1B4F2B502BC6
:10069E00562B023079020318552B562B412B791805
:1006AE00592B5A2B622BFF30FA05FF30FB057F309A
:1006BE00FC05FF30FD050310F90C7908F400F50177
:1006CE00F601F70118300310F40DF50DF60DF70DC8
:1006DE00FF3E031D6A2B7408FA047508FB047608A6
:1006EE00FC047708FD04780803197E2B7F2B842BDE
:1006FE00F31F822B832B842BFD177D08F3007C08C0
:10070E00F2007B08F1007A08F000080077088039C3
:10071E00F800780883120313A4007708F80078070E
:10072E00F9007908AB00F61F9D2B9E2B9F2B2B14E7
:10073E002B080319A32BA42BB42B2B0A031DA82BB8
:10074E00A92BB12B0030F7000030F6000030F50079
:10075E000030F400F617F701BC2B0030F700003024
:10076E00F6000030F5000030F40073088039F80010
:10077E007808A4067308F8007807F9007908AC0029
:10078E00F21FCA2BCB2BCC2B2C142C080319D02BDD
:10079E00D12BE12B2C0A031DD52BD62BDE2B0030B3
:1007AE00F3000030F2000030F1000030F000F217DC
:1007BE00F301E92B0030F3000030F2000030F100BD
:1007CE000030F0007308720471047004031DF02BE6
:1007DE00F12B0A2C0030F7000030F6000030F50047
:1007EE000030F4008030F6047F30F7042408F8005F
:1007FE007808F7047708F3007608F2007508F10020
:10080E007408F0006F2D2B08031D0E2C0F2C182CC6
:10081E000030F3000030F2000030F1000030F00044
:10082E006F2D2B08F800F9017908FB002C087802CF
:10083E00FA00031CFB037A087F3EA5007B08031811
:10084E00013E003EA6007708A3007608A2007508B8
:10085E00A1007408A0000030F7000030F600003050
:10086E00F5000030F4000030AA000030A90000307E
:10087E00A8000030A700AC01942C2C080319482CBA
:10088E00492C692C0130F8000310A00DA10DA20D0A
:10089E00A30DF80B4B2C0130F8000310F40DF50DE1
:1008AE00F60DF70DF80B542CAA1F5E2C5F2C602C46
:1008BE0074140130F8000310A70DA80DA90DAA0D90
:1008CE00F80B622C73082302031D772C7208220288
:1008DE00031D772C71082102031D772C700820024E
:1008EE00031C7A2C7B2C902C2A177008A0027108FE
:1008FE00031C710F832C842CA1027208031C720F2F
:10090E00892C8A2CA2027308031C730F8F2C902C37
:10091E00A3020130F8007808AC071A302C02031C31
:10092E00992C9A2C442C2308220421042004031908
:10093E00A12CA22CC12C2714C12C0130F8000310BD
:10094E00F40DF50DF60DF70DF80BA62CAA1FB02C15
:10095E00B12CB22C74140130F8000310A70DA80DA1
:10096E00A90DAA0DF80BB42CFF30A5070318A60A83
:10097E00FF30A607F61FC42CC52CA42CAC01AA1F51
:10098E00C92CCA2CE62CFF302705F800FF302805AD
:10099E00F900FF302905FA007F302A05FB007B089D
:1009AE007A04790478040319DD2CDE2CE12CAC01D9
:1009BE00AC0AE62C741CE42CE52CE62CDE2C2C0860
:1009CE000319EA2CEB2C1C2D0130F4070030031810
:1009DE000130F507003003180130F6070030031818
:1009EE000130F707771CFC2CFD2C1C2D7408F80029
:1009FE007508F9007608FA007708FB000130FC0054
:100A0E007B0DFB0CFA0CF90CF80CFC0B072D7B087C
:100A1E00F7007A08F6007908F5007808F40001303E
:100A2E00A5070318A60A0030A6072608803AFF007D
:100A3E0080307F02031D252DFF302502031C282D3B
:100A4E00292D372DFF3083120313A5000030A60089
:100A5E000030F7000030F6000030F5000030F400F2
:100A6E00831203132608803AFF0080307F02031D95
:100A7E00422D013025020318452D462D532D83128C
:100A8E000313A501A6010030F7000030F600003078
:100A9E00F5000030F400A401831203132508F800BA
:100AAE007808AB002B1C5C2D5D2D5F2DF617632D8A
:100ABE007F30F8007808F6052B08F8000310780C44
:100ACE00F9007908F7002408F8007808F704012CDB
:100ADE0008008312031330088039B5003508BD00B5
:100AEE003008B5003507B6003608BF00AF1F802DA1
:100AFE00812D822D3F143F080319862D872D972DAA
:100B0E003F0A031D8B2D8C2D942D0030B00000302C
:100B1E00AF000030AE000030AD00AF17B0019F2D1A
:100B2E000030B0000030AF000030AE000030AD003D
:100B3E0034088039B5003508BE003E083D0603195D
:100B4E00A92DAA2DAB2D3D173408B5003507B600DB
:100B5E003608BE00B31FB42DB52DB62D3E143E087B
:100B6E000319BA2DBB2DCB2D3E0A031DBF2DC02D53
:100B7E00C82D0030B4000030B3000030B200003099
:100B8E00B100B317B401D32D0030B4000030B30060
:100B9E000030B2000030B1003F083E020318D82DDD
:100BAE00D92D1D2E3D1FDC2DDD2DE12D8030B50004
:100BBE003508BD063F08B5003508C0003E08B50033
:100BCE003508BF004008B5003508BE002D08B50039
:100BDE003508C0003108B5003508AD004008B50035
:100BEE003508B1002E08B5003508C0003208B50032
:100BFE003508AE004008B5003508B2002F08B50024
:100C0E003508C0003308B5003508AF004008B50000
:100C1E003508B3003008B5003508C0003408B500FB
:100C2E003508B0004008B5003508B400C0013E08D4
:100C3E00B500B6013608B8003F083502B700031CF0
:100C4E00B8033808803AFF0080307F02031D312E32
:100C5E001A303702031C342E352E722E83120313D4
:100C6E0030082F042E042D04031D3E2E402E01307D
:100C7E00412E0030B5003508C0000030B000003005
:100C8E00AF000030AE000030AD003E08B5003508B4
:100C9E00BF007A2E401C542E552E5E2E4008B500F5
:100CAE000310350C0138B6003608C000602E031054
:100CBE00C00C2D1C632E642E652EC0170130B5009E
:100CCE00300DB00CAF0CAE0CAD0CB50B672E013069
:100CDE00B5003508BF07831203133E083F02031CFD
:100CEE00792E7A2E512E3D1B7D2E7E2EC92E3F083B
:100CFE00031D822E832E8C2E0030B0000030AF00EC
:100D0E000030AE000030AD00F72F3108AD073208CD
:100D1E0003110318013E0319952EAE073308031174
:100D2E000318013E03199C2EAF0734080311031854
:100D3E00013E0319A32EB007301CA62EA72E7D2F21
:100D4E00401CAA2EAB2EB42E4008B5000310350C55
:100D5E000138B6003608C000B62E0310C00C2D1C8C
:100D6E00B92EBA2EBB2EC0170130B500300DB00C07
:100D7E00AF0CAE0CAD0CB50BBD2E0130B500350869
:100D8E00BF077D2F3008803AFF003408803A7F027B
:100D9E00031DDB2E33082F02031DDB2E32082E021D
:100DAE00031DDB2E31082D020318DE2EDF2E372F0A
:100DBE00FF30B500FF30B600FF30B700FF30B8008F
:100DCE003108B9003208BA003308BB003408BC0041
:100DDE002D08B9022E08031C2E0FF62EF72EBA027E
:100DEE002F08031C2F0FFC2EFD2EBB023008031CF8
:100DFE00300F022F032FBC023908B5073A0803182B
:100E0E003A0F0A2F0B2FB6073B0803183B0F102F74
:100E1E00112FB7073C0803183C0AB8073808B00072
:100E2E003708AF003608AE003508AD008030B5008B
:100E3E003508BD06C009C00A4008031D272F282FFC
:100E4E00452F0130AD07003003180130AE070030DA
:100E5E0003180130AF07003003180130B007452FDB
:100E6E003108AD023208031C320FAE023308031CE8
:100E7E00330FAF023408031C340FB00230082F04B6
:100E8E002E042D04031D4C2F4D2F792F4008031DCA
:100E9E00512F522F792F0030B0000030AF000030AC
:100EAE00AE000030AD00F72F0130B5000310AD0DD0
:100EBE00AE0DAF0DB00DB50B5D2FC01F672F682F98
:100ECE00692F2D14401C6C2F6D2F702F0314C00D25
:100EDE00722F0310C00D3F080319762F772F792F2D
:100EEE000130BF02AF1F7C2F7D2F5B2FBE01C01FB5
:100EFE00812F822F902F40087F390319872F882F3B
:100F0E008B2FBE01BE0A902F2D1C8E2F8F2F902F50
:100F1E00882F3E080319942F952FC92F0130AD0746
:100F2E00003003180130AE07003003180130AF0750
:100F3E00003003180130B007301CA62FA72FC92F81
:100F4E002D08B5002E08B6002F08B7003008B800DF
:100F5E000130B900380DB80CB70CB60CB50CB90B86
:100F6E00B12F3808B0003708AF003608AE0035088C
:100F7E00AD003F0A0319C42FC52FC92F0130B5008C
:100F8E003508BF073F0A0319CD2FCE2FD32F3F08A9
:100F9E00031DD22FD32FE12F0030B0000030AF0051
:100FAE000030AE000030AD003F08031DDF2FE02FF4
:100FBE00E12FBD013F1CE42FE52FE72FAF17EB2FDD
:100FCE007F30B5003508AF053F08B5000310350C6E
:100FDE00B6003608B000BD1FF52FF62FF72FB0174D
:100FEE00080083120313E401E50183010A128A113A
:020FFE00B62912
:101C5C00831203138C1D332E342E2E2E8C11080060
:101C6C008316031391121116111A3D2E3E2E3A2E85
:101C7C0008008316031391161116111A462E472EBF
:101C8C00432E080083160313111511194E2E4F2ED7
:101C9C004B2E831203138C118316031314080800A4
:101CAC00F00070088312031393000A128A152E2673
:101CBC000A128A1583160313111F652E662E682EC1
:101CCC000130692E00300800F100831603139114C3
:101CDC009118712E722E6E2E831203138C11831693
:101CEC00031394197A2E7B2E7D2E0130832E7108CE
:101CFC000A128A1556260A128A150800F100831654
:101D0C000313111411188B2E8C2E882E831203138F
:101D1C008C11831603139419942E952E972E013043
:101D2C009D2E71080A128A1556260A128A15080069
:101D3C00F100831603139115141CA52EA62EA22EAA
:101D4C00831203131308F0007008F2007108031DCE
:101D5C00B02EB12EB72E0A128A1536260A128A1503
:101D6C00BC2E0A128A153F260A128A157208080020
:101D7C00F5007508F4007408F600CF2E7008F40016
:101D8C00760884007408831380000130F400740812
:101D9C00F6070130F2020030031CF303F302720A5F
:101DAC00031DDC2E730A031DDC2EDD2EC42E080051
:101DBC00F400D2300A128A1584260A128A15F3000E
:101DCC007308F5007508031DEC2EED2E012F740819
:101DDC000A128A1556260A128A15F3007308F500A2
:101DEC007508031DFA2EFB2E012F72080A128A1594
:101DFC0056260A128A150A128A1548260A128A15BC
:101E0C000800F000831603138715071683120313BB
:101E1C00941683160313940194177008031D172F3F
:101E2C00182F1F2F831203131408F039083894004D
:101E3C00252F831203131408F039043894008316E9
:101E4C000313910109309300831203138C11831631
:101E5C0003138C15080045300A128A15C4270A1280
:101E6C008A15831203132608B4002508B30024082E
:101E7C00B2002308B1004330F3000330F20000300D
:101E8C00F1000030F0003408F7003308F600320897
:101E9C00F5003108F4000A128A118D230A128A15F2
:101EAC00730883120313B0007208AF007108AE0000
:101EBC007008AD00080047300A128A15C4270A12B0
:101ECC008A15831203132608B4002508B3002408CE
:101EDC00B2002308B1004330F3000330F2000030AD
:101EEC00F1000030F0003408F7003308F600320837
:101EFC00F5003108F4000A128A118D230A128A1592
:101F0C00730883120313B0007208AF007108AE009F
:101F1C007008AD0008000730F6007608F2001930A2
:101F2C000A128A15DE260A128A15F201F20A6B30A1
:101F3C000A128A15DE260A128A15F2011A300A12C2
:101F4C008A15DE260A128A15F2011C300A128A152D
:101F5C00DE260A128A151830F6007608F2001B30BD
:101F6C000A128A15DE260A128A15F201F20A383094
:101F7C000A128A15DE260A128A1508008312031328
:101F8C00AB000230F7000030F8006430A7002708DF
:101F9C00F9000230A8002808FA002B080A128A114E
:101FAC0028220A128A15831203136508A700A801B8
:101FBC006408A900AA012908AA00A9012708290474
:101FCC00F00028082A04F100F201F11BF203720858
:101FDC00F30001300A128A11D3220A128A157308EF
:101FEC0083120313A6007208A5007108A4007008E0
:041FFC00A300080036
:04400E00D93FFF3F58
:00000001FF
